:1000000075817075D00075800075B00F75A000798E
:10001000507B0490051FE493F709A3DBF99004F8E3
:10002000E49391A491D66003A380F5900502917F9B
:100030001204E77F00E4FBFC7D0478407950120451
:1000400092900513917F748B91A491D69100E493C3
:10005000F6742A91B591D608DD02800280EE7D000B
:100060007A0478407950E6F5F0E4E7B5F0028001D3
:100070000D0809DAF1BD0002800CBD0112918B90D0
:100080000543917F8012918B900533917F804B9136
:100090008B900523917F80000FBF03028003020035
:1000A00035120492900552917F918B900559917F62
:1000B0009100E493FCBC34E979507D0412049290E1
:1000C0000565917F9100E493F7742A91B591D60963
:1000D000DD0280030200C402001D12049290056E2E
:1000E000917F918B90057F917F9100E493FCBC35CB
:1000F00007C2A4D2A30200E9E493FCBC3607C2A362
:10010000C2A40200E9E493FCBC3407B2A3B2A40287
:0701100000E90200E980FE96
:10040000C2B4C2B5C2B6C2B7E5B0540FB40FF191D1
:10041000D6E5B0540FB40F0280F591D6E5B0540F75
:10042000B40F0280EAC2B4D2B5D2B6D2B7E5B054A6
:100430000FB40F30D2B4C2B5D2B6D2B7E5B0540FB4
:10044000B40F26D2B4D2B5C2B6D2B7E5B0540FB409
:100450000F1CD2B4D2B5D2B6C2B7E5B0540FB40FA8
:100460001202040F900590800F900594800A900569
:1004700098800590059C8000135003A380FA22E425
:1004800093600791B591D6A380F52274C091A49191
:10049000D6229004FEE49391A491D66006A380F541
:1004A0001204D6221204C5F580C2A0C2A1D2A212A3
:1004B00004D6C2A2221204C5F580D2A0C2A1D2A243
:1004C00091D6C2A222D287C2A0D2A1C2A21204D6C1
:1004D000D2A22087F622C003C0047B327CFFDCFE60
:1004E000DBFAD004D00322C003C0047BFF7CFFDC16
:1004F000FEDBFAD004D00322380E0106800001068C
:1005000080002020202057454C434F4D452120207E
:1005100020200020454E54455220502F573A003598
:1005200034353420204143434553532044454E49FC
:1005300045440020414343455353204752414E54C4
:100540004544002020414C4D4F53542052494748C8
:1005500054004C4F434B45440052455345542050A2
:100560002F573A34004E455720502F573A004F4EE0
:100570003A203520202020204F46463A20360020C1
:100580002020524556455253453A20342020200021
:100590003132334134353642373839432A302344F7
:00000001FF
